{
  "_format": "hh-sol-artifact-1",
  "contractName": "Exchange",
  "sourceName": "contracts/Exchange.sol",
  "abi": [
    {
      "anonymous": false,
      "inputs": [
        {
          "indexed": true,
          "internalType": "string",
          "name": "aggregatorId",
          "type": "string"
        }
      ],
      "name": "AdapterRemoved",
      "type": "event"
    },
    {
      "anonymous": false,
      "inputs": [
        {
          "indexed": true,
          "internalType": "string",
          "name": "aggregatorId",
          "type": "string"
        },
        {
          "indexed": true,
          "internalType": "address",
          "name": "addr",
          "type": "address"
        }
      ],
      "name": "AdapterSet",
      "type": "event"
    },
    {
      "anonymous": false,
      "inputs": [
        {
          "indexed": true,
          "internalType": "address",
          "name": "previousOwner",
          "type": "address"
        },
        {
          "indexed": true,
          "internalType": "address",
          "name": "newOwner",
          "type": "address"
        }
      ],
      "name": "OwnershipTransferred",
      "type": "event"
    },
    {
      "anonymous": false,
      "inputs": [
        {
          "indexed": false,
          "internalType": "address",
          "name": "account",
          "type": "address"
        }
      ],
      "name": "Paused",
      "type": "event"
    },
    {
      "anonymous": false,
      "inputs": [
        {
          "indexed": true,
          "internalType": "string",
          "name": "aggregatorId",
          "type": "string"
        },
        {
          "indexed": true,
          "internalType": "contract IERC20",
          "name": "tokenFrom",
          "type": "address"
        },
        {
          "indexed": true,
          "internalType": "contract IERC20",
          "name": "tokenTo",
          "type": "address"
        },
        {
          "indexed": false,
          "internalType": "uint256",
          "name": "amountFrom",
          "type": "uint256"
        },
        {
          "indexed": false,
          "internalType": "uint256",
          "name": "amountTo",
          "type": "uint256"
        },
        {
          "indexed": false,
          "internalType": "address",
          "name": "sender",
          "type": "address"
        }
      ],
      "name": "Swap",
      "type": "event"
    },
    {
      "anonymous": false,
      "inputs": [
        {
          "indexed": false,
          "internalType": "address",
          "name": "account",
          "type": "address"
        }
      ],
      "name": "Unpaused",
      "type": "event"
    },
    {
      "inputs": [
        {
          "internalType": "string",
          "name": "aggregatorId",
          "type": "string"
        }
      ],
      "name": "adapterFee",
      "outputs": [
        {
          "internalType": "uint8",
          "name": "fee",
          "type": "uint8"
        }
      ],
      "stateMutability": "view",
      "type": "function"
    },
    {
      "inputs": [
        {
          "internalType": "string",
          "name": "",
          "type": "string"
        }
      ],
      "name": "adapterRemoved",
      "outputs": [
        {
          "internalType": "bool",
          "name": "",
          "type": "bool"
        }
      ],
      "stateMutability": "view",
      "type": "function"
    },
    {
      "inputs": [
        {
          "internalType": "string",
          "name": "",
          "type": "string"
        }
      ],
      "name": "adapters",
      "outputs": [
        {
          "internalType": "address",
          "name": "",
          "type": "address"
        }
      ],
      "stateMutability": "view",
      "type": "function"
    },
    {
      "inputs": [],
      "name": "owner",
      "outputs": [
        {
          "internalType": "address",
          "name": "",
          "type": "address"
        }
      ],
      "stateMutability": "view",
      "type": "function"
    },
    {
      "inputs": [],
      "name": "pauseSwaps",
      "outputs": [],
      "stateMutability": "nonpayable",
      "type": "function"
    },
    {
      "inputs": [],
      "name": "paused",
      "outputs": [
        {
          "internalType": "bool",
          "name": "",
          "type": "bool"
        }
      ],
      "stateMutability": "view",
      "type": "function"
    },
    {
      "inputs": [
        {
          "internalType": "string",
          "name": "aggregatorId",
          "type": "string"
        }
      ],
      "name": "removeAdapter",
      "outputs": [],
      "stateMutability": "nonpayable",
      "type": "function"
    },
    {
      "inputs": [],
      "name": "renounceOwnership",
      "outputs": [],
      "stateMutability": "nonpayable",
      "type": "function"
    },
    {
      "inputs": [
        {
          "internalType": "string",
          "name": "aggregatorId",
          "type": "string"
        },
        {
          "internalType": "address",
          "name": "addr",
          "type": "address"
        }
      ],
      "name": "setAdapter",
      "outputs": [],
      "stateMutability": "nonpayable",
      "type": "function"
    },
    {
      "inputs": [
        {
          "internalType": "string[]",
          "name": "aggregatorIds",
          "type": "string[]"
        },
        {
          "internalType": "bytes[]",
          "name": "paths",
          "type": "bytes[]"
        },
        {
          "internalType": "uint256[]",
          "name": "amountsFrom",
          "type": "uint256[]"
        },
        {
          "internalType": "uint256[]",
          "name": "amountsTo",
          "type": "uint256[]"
        },
        {
          "internalType": "uint256",
          "name": "deadline",
          "type": "uint256"
        },
        {
          "internalType": "bool",
          "name": "isTokenFromHBAR",
          "type": "bool"
        },
        {
          "internalType": "bool",
          "name": "feeOnTransfer",
          "type": "bool"
        }
      ],
      "name": "splitSwap",
      "outputs": [],
      "stateMutability": "payable",
      "type": "function"
    },
    {
      "inputs": [
        {
          "internalType": "string",
          "name": "aggregatorId",
          "type": "string"
        },
        {
          "internalType": "bytes",
          "name": "path",
          "type": "bytes"
        },
        {
          "internalType": "uint256",
          "name": "amountFrom",
          "type": "uint256"
        },
        {
          "internalType": "uint256",
          "name": "amountTo",
          "type": "uint256"
        },
        {
          "internalType": "uint256",
          "name": "deadline",
          "type": "uint256"
        },
        {
          "internalType": "bool",
          "name": "isTokenFromHBAR",
          "type": "bool"
        },
        {
          "internalType": "bool",
          "name": "feeOnTransfer",
          "type": "bool"
        }
      ],
      "name": "swap",
      "outputs": [],
      "stateMutability": "payable",
      "type": "function"
    },
    {
      "inputs": [
        {
          "internalType": "address",
          "name": "newOwner",
          "type": "address"
        }
      ],
      "name": "transferOwnership",
      "outputs": [],
      "stateMutability": "nonpayable",
      "type": "function"
    },
    {
      "inputs": [],
      "name": "unpauseSwaps",
      "outputs": [],
      "stateMutability": "nonpayable",
      "type": "function"
    }
  ],
  "bytecode": "0x608060405234801561001057600080fd5b5061001a33610030565b6000805460ff60a01b1916905560018055610080565b600080546001600160a01b038381166001600160a01b0319831681178455604051919092169283917f8be0079c531659141344cd1fd0a4f28419497f9722a3daafe3b4186f6b6457e09190a35050565b6118378061008f6000396000f3fe6080604052600436106100d25760003560e01c80638da5cb5b1161007f578063b84f5d1e11610059578063b84f5d1e14610208578063bad50a4714610249578063bd1348991461027b578063f2fde38b1461028e57600080fd5b80638da5cb5b146101865780639804a380146101b8578063b5268389146101cd57600080fd5b8063558b7dd1116100b0578063558b7dd11461012c5780635c975abb14610141578063715018a61461017157600080fd5b806328318a17146100d757806339122461146100ec5780633ef11fd71461010c575b600080fd5b6100ea6100e53660046112e1565b6102ae565b005b3480156100f857600080fd5b506100ea61010736600461142a565b61042a565b34801561011857600080fd5b506100ea61012736600461147e565b61060a565b34801561013857600080fd5b506100ea610746565b34801561014d57600080fd5b50600054600160a01b900460ff165b60405190151581526020015b60405180910390f35b34801561017d57600080fd5b506100ea610758565b34801561019257600080fd5b506000546001600160a01b03165b6040516001600160a01b039091168152602001610168565b3480156101c457600080fd5b506100ea61076a565b3480156101d957600080fd5b5061015c6101e83660046114d6565b805160208183018101805160038252928201919093012091525460ff1681565b34801561021457600080fd5b506101a06102233660046114d6565b80516020818301810180516002825292820191909301209152546001600160a01b031681565b34801561025557600080fd5b5061026961026436600461147e565b61077a565b60405160ff9091168152602001610168565b6100ea610289366004611587565b6108a3565b34801561029a57600080fd5b506100ea6102a9366004611639565b61095b565b6102b66109eb565b6102be610a45565b60005b60ff81168b111561041357600060028d8d60ff85168181106102e5576102e5611654565b90506020028101906102f7919061166a565b6040516103059291906116b1565b908152604051908190036020019020546001600160a01b0316036103705760405162461bcd60e51b815260206004820152601f60248201527f457461537761703a20414441505445525f444f45535f4e4f545f45584953540060448201526064015b60405180910390fd5b6104018c8c8360ff1681811061038857610388611654565b905060200281019061039a919061166a565b8c8c8560ff168181106103af576103af611654565b90506020028101906103c1919061166a565b8c8c8760ff168181106103d6576103d6611654565b905060200201358b8b8860ff168181106103f2576103f2611654565b905060200201358a8a8a610a9e565b8061040b816116c1565b9150506102c1565b5061041d60018055565b5050505050505050505050565b6000816001600160a01b03163b116104845760405162461bcd60e51b815260206004820152601f60248201527f457461537761703a20414441505445525f4e4f545f415f434f4e5452414354006044820152606401610367565b600383836040516104969291906116b1565b9081526040519081900360200190205460ff16156104f65760405162461bcd60e51b815260206004820152601860248201527f457461537761703a20414441505445525f52454d4f56454400000000000000006044820152606401610367565b60006001600160a01b0316600284846040516105139291906116b1565b908152604051908190036020019020546001600160a01b0316146105795760405162461bcd60e51b815260206004820152601760248201527f457461537761703a20414441505445525f4558495354530000000000000000006044820152606401610367565b806002848460405161058c9291906116b1565b90815260405190819003602001812080546001600160a01b0393841673ffffffffffffffffffffffffffffffffffffffff19909116179055908216906105d590859085906116b1565b604051908190038120907ff9648cbc19f288e0f271f7e95311238912bf1ea8225e636a13bb1d259126002190600090a3505050565b610612610cf1565b60006001600160a01b03166002838360405161062f9291906116b1565b908152604051908190036020019020546001600160a01b0316036106955760405162461bcd60e51b815260206004820152601f60248201527f457461537761703a20414441505445525f444f45535f4e4f545f4558495354006044820152606401610367565b600282826040516106a79291906116b1565b908152604051908190036020018120805473ffffffffffffffffffffffffffffffffffffffff191690556001906003906106e490859085906116b1565b908152604051908190036020018120805492151560ff199093169290921790915561071290839083906116b1565b604051908190038120907fb00061f7cc154fc23eb34671ab724fc7eb7b806abae871abae8f1eafce97213590600090a25050565b61074e610cf1565b610756610d4b565b565b610760610cf1565b6107566000610dab565b610772610cf1565b610756610e08565b6000806001600160a01b0316600284846040516107989291906116b1565b908152604051908190036020019020546001600160a01b0316036107fe5760405162461bcd60e51b815260206004820152601f60248201527f457461537761703a20414441505445525f444f45535f4e4f545f4558495354006044820152606401610367565b600283836040516108109291906116b1565b9081526040805160209281900383018120547fdc3ef68500000000000000000000000000000000000000000000000000000000825291516001600160a01b039092169263dc3ef685926004808401938290030181865afa158015610878573d6000803e3d6000fd5b505050506040513d601f19601f8201168201806040525081019061089c91906116ee565b9392505050565b6108ab6109eb565b6108b3610a45565b60006001600160a01b031660028a8a6040516108d09291906116b1565b908152604051908190036020019020546001600160a01b0316036109365760405162461bcd60e51b815260206004820152601f60248201527f457461537761703a20414441505445525f444f45535f4e4f545f4558495354006044820152606401610367565b610947898989898989898989610a9e565b61095060018055565b505050505050505050565b610963610cf1565b6001600160a01b0381166109df5760405162461bcd60e51b815260206004820152602660248201527f4f776e61626c653a206e6577206f776e657220697320746865207a65726f206160448201527f64647265737300000000000000000000000000000000000000000000000000006064820152608401610367565b6109e881610dab565b50565b600054600160a01b900460ff16156107565760405162461bcd60e51b815260206004820152601060248201527f5061757361626c653a20706175736564000000000000000000000000000000006044820152606401610367565b600260015403610a975760405162461bcd60e51b815260206004820152601f60248201527f5265656e7472616e637947756172643a207265656e7472616e742063616c6c006044820152606401610367565b6002600155565b600060028a8a604051610ab29291906116b1565b908152604051908190036020019020546001600160a01b03169050600082610b1857610b1389898080601f016020809104026020016040519081016040528093929190818152602001838380828437600092019190915250610e4492505050565b610b57565b610b5789898080601f016020809104026020016040519081016040528093929190818152602001838380828437600092019190915250610ea092505050565b9050600083610ba457610b9f8a8a8080601f016020809104026020016040519081016040528093929190818152602001838380828437600092019190915250610ea092505050565b610be3565b610be38a8a8080601f016020809104026020016040519081016040528093929190818152602001838380828437600092019190915250610e4492505050565b905084610bff57610bff6001600160a01b03831633858b610efc565b826001600160a01b0316632f1525ad86610c1a576000610c1c565b895b338d8d8d8d8d8c6040518963ffffffff1660e01b8152600401610c459796959493929190611711565b6000604051808303818588803b158015610c5e57600080fd5b505af1158015610c72573d6000803e3d6000fd5b5050505050806001600160a01b0316826001600160a01b03168d8d604051610c9b9291906116b1565b604080519182900382208c8352602083018c90523383830152905190917fd6e2df47c5d5e51f1a721ce578abf9db5ded63bd770da8e0d34a4a801a1fca0b919081900360600190a4505050505050505050505050565b6000546001600160a01b031633146107565760405162461bcd60e51b815260206004820181905260248201527f4f776e61626c653a2063616c6c6572206973206e6f7420746865206f776e65726044820152606401610367565b610d536109eb565b6000805460ff60a01b1916600160a01b1790557f62e78cea01bee320cd4e420270b5ea74000d11b0c9f74754ebdbfc544b05a258610d8e3390565b6040516001600160a01b03909116815260200160405180910390a1565b600080546001600160a01b0383811673ffffffffffffffffffffffffffffffffffffffff19831681178455604051919092169283917f8be0079c531659141344cd1fd0a4f28419497f9722a3daafe3b4186f6b6457e09190a35050565b610e10610f8a565b6000805460ff60a01b191690557f5db9ee0a495bf2e6ff9c91a7834c1ba4fdd244a5e8aa4e537bd38aeae4b073aa33610d8e565b6000601482511015610e985760405162461bcd60e51b815260206004820152601760248201527f496e707574206461746120697320746f6f2073686f72740000000000000000006044820152606401610367565b506014015190565b6000601482511015610ef45760405162461bcd60e51b815260206004820152601760248201527f496e707574206461746120697320746f6f2073686f72740000000000000000006044820152606401610367565b508051015190565b604080516001600160a01b0385811660248301528416604482015260648082018490528251808303909101815260849091019091526020810180517bffffffffffffffffffffffffffffffffffffffffffffffffffffffff167f23b872dd00000000000000000000000000000000000000000000000000000000179052610f84908590610fe3565b50505050565b600054600160a01b900460ff166107565760405162461bcd60e51b815260206004820152601460248201527f5061757361626c653a206e6f74207061757365640000000000000000000000006044820152606401610367565b6000611038826040518060400160405280602081526020017f5361666545524332303a206c6f772d6c6576656c2063616c6c206661696c6564815250856001600160a01b03166110d09092919063ffffffff16565b90508051600014806110595750808060200190518101906110599190611771565b6110cb5760405162461bcd60e51b815260206004820152602a60248201527f5361666545524332303a204552433230206f7065726174696f6e20646964206e60448201527f6f742073756363656564000000000000000000000000000000000000000000006064820152608401610367565b505050565b60606110df84846000856110e7565b949350505050565b60608247101561115f5760405162461bcd60e51b815260206004820152602660248201527f416464726573733a20696e73756666696369656e742062616c616e636520666f60448201527f722063616c6c00000000000000000000000000000000000000000000000000006064820152608401610367565b600080866001600160a01b0316858760405161117b91906117b2565b60006040518083038185875af1925050503d80600081146111b8576040519150601f19603f3d011682016040523d82523d6000602084013e6111bd565b606091505b50915091506111ce878383876111d9565b979650505050505050565b60608315611248578251600003611241576001600160a01b0385163b6112415760405162461bcd60e51b815260206004820152601d60248201527f416464726573733a2063616c6c20746f206e6f6e2d636f6e74726163740000006044820152606401610367565b50816110df565b6110df838381511561125d5781518083602001fd5b8060405162461bcd60e51b815260040161036791906117ce565b60008083601f84011261128957600080fd5b50813567ffffffffffffffff8111156112a157600080fd5b6020830191508360208260051b85010111156112bc57600080fd5b9250929050565b80151581146109e857600080fd5b80356112dc816112c3565b919050565b600080600080600080600080600080600060e08c8e03121561130257600080fd5b67ffffffffffffffff808d35111561131957600080fd5b6113268e8e358f01611277565b909c509a5060208d013581101561133c57600080fd5b61134c8e60208f01358f01611277565b909a50985060408d013581101561136257600080fd5b6113728e60408f01358f01611277565b909850965060608d013581101561138857600080fd5b506113998d60608e01358e01611277565b909550935060808c013592506113b160a08d016112d1565b91506113bf60c08d016112d1565b90509295989b509295989b9093969950565b60008083601f8401126113e357600080fd5b50813567ffffffffffffffff8111156113fb57600080fd5b6020830191508360208285010111156112bc57600080fd5b80356001600160a01b03811681146112dc57600080fd5b60008060006040848603121561143f57600080fd5b833567ffffffffffffffff81111561145657600080fd5b611462868287016113d1565b9094509250611475905060208501611413565b90509250925092565b6000806020838503121561149157600080fd5b823567ffffffffffffffff8111156114a857600080fd5b6114b4858286016113d1565b90969095509350505050565b634e487b7160e01b600052604160045260246000fd5b6000602082840312156114e857600080fd5b813567ffffffffffffffff8082111561150057600080fd5b818401915084601f83011261151457600080fd5b813581811115611526576115266114c0565b604051601f8201601f19908116603f0116810190838211818310171561154e5761154e6114c0565b8160405282815287602084870101111561156757600080fd5b826020860160208301376000928101602001929092525095945050505050565b600080600080600080600080600060e08a8c0312156115a557600080fd5b893567ffffffffffffffff808211156115bd57600080fd5b6115c98d838e016113d1565b909b50995060208c01359150808211156115e257600080fd5b506115ef8c828d016113d1565b90985096505060408a0135945060608a0135935060808a0135925060a08a0135611618816112c3565b915060c08a0135611628816112c3565b809150509295985092959850929598565b60006020828403121561164b57600080fd5b61089c82611413565b634e487b7160e01b600052603260045260246000fd5b6000808335601e1984360301811261168157600080fd5b83018035915067ffffffffffffffff82111561169c57600080fd5b6020019150368190038213156112bc57600080fd5b8183823760009101908152919050565b600060ff821660ff81036116e557634e487b7160e01b600052601160045260246000fd5b60010192915050565b60006020828403121561170057600080fd5b815160ff8116811461089c57600080fd5b6001600160a01b038816815260c060208201528560c0820152858760e0830137600060e08783010152600060e0601f19601f890116830101905085604083015284606083015283608083015282151560a083015298975050505050505050565b60006020828403121561178357600080fd5b815161089c816112c3565b60005b838110156117a9578181015183820152602001611791565b50506000910152565b600082516117c481846020870161178e565b9190910192915050565b60208152600082518060208401526117ed81604085016020870161178e565b601f01601f1916919091016040019291505056fea2646970667358221220e2c1e5aa323e72313cc185f047efcec611c007e7835cf6510684d8f092e860b364736f6c63430008130033",
  "linkReferences": {},
  "deployedLinkReferences": {}
}