{
  "_format": "hh-sol-artifact-1",
  "contractName": "SaucerSwapAdapter",
  "sourceName": "contracts/adapters/SaucerSwapAdapter.sol",
  "abi": [
    {
      "inputs": [
        {
          "internalType": "address payable",
          "name": "_feeWallet",
          "type": "address"
        },
        {
          "internalType": "contract IUniswapV2Router02",
          "name": "_router",
          "type": "address"
        },
        {
          "internalType": "uint8",
          "name": "_feePromille",
          "type": "uint8"
        },
        {
          "internalType": "contract IERC20",
          "name": "_whbarToken",
          "type": "address"
        },
        {
          "internalType": "contract IWHBAR",
          "name": "_whbarContract",
          "type": "address"
        }
      ],
      "stateMutability": "nonpayable",
      "type": "constructor"
    },
    {
      "anonymous": false,
      "inputs": [
        {
          "indexed": true,
          "internalType": "address",
          "name": "previousOwner",
          "type": "address"
        },
        {
          "indexed": true,
          "internalType": "address",
          "name": "newOwner",
          "type": "address"
        }
      ],
      "name": "OwnershipTransferred",
      "type": "event"
    },
    {
      "stateMutability": "payable",
      "type": "fallback"
    },
    {
      "inputs": [],
      "name": "feePromille",
      "outputs": [
        {
          "internalType": "uint8",
          "name": "",
          "type": "uint8"
        }
      ],
      "stateMutability": "view",
      "type": "function"
    },
    {
      "inputs": [],
      "name": "feeWallet",
      "outputs": [
        {
          "internalType": "address payable",
          "name": "",
          "type": "address"
        }
      ],
      "stateMutability": "view",
      "type": "function"
    },
    {
      "inputs": [],
      "name": "owner",
      "outputs": [
        {
          "internalType": "address",
          "name": "",
          "type": "address"
        }
      ],
      "stateMutability": "view",
      "type": "function"
    },
    {
      "inputs": [],
      "name": "renounceOwnership",
      "outputs": [],
      "stateMutability": "nonpayable",
      "type": "function"
    },
    {
      "inputs": [],
      "name": "router",
      "outputs": [
        {
          "internalType": "contract IUniswapV2Router02",
          "name": "",
          "type": "address"
        }
      ],
      "stateMutability": "view",
      "type": "function"
    },
    {
      "inputs": [
        {
          "internalType": "uint8",
          "name": "_feePromille",
          "type": "uint8"
        }
      ],
      "name": "setFeePromille",
      "outputs": [],
      "stateMutability": "nonpayable",
      "type": "function"
    },
    {
      "inputs": [
        {
          "internalType": "address payable",
          "name": "recipient",
          "type": "address"
        },
        {
          "internalType": "bytes",
          "name": "path",
          "type": "bytes"
        },
        {
          "internalType": "uint256",
          "name": "amountFrom",
          "type": "uint256"
        },
        {
          "internalType": "uint256",
          "name": "amountTo",
          "type": "uint256"
        },
        {
          "internalType": "uint256",
          "name": "deadline",
          "type": "uint256"
        },
        {
          "internalType": "bool",
          "name": "feeOnTransfer",
          "type": "bool"
        }
      ],
      "name": "swap",
      "outputs": [],
      "stateMutability": "payable",
      "type": "function"
    },
    {
      "inputs": [
        {
          "internalType": "address",
          "name": "newOwner",
          "type": "address"
        }
      ],
      "name": "transferOwnership",
      "outputs": [],
      "stateMutability": "nonpayable",
      "type": "function"
    },
    {
      "inputs": [],
      "name": "whbarContract",
      "outputs": [
        {
          "internalType": "contract IWHBAR",
          "name": "",
          "type": "address"
        }
      ],
      "stateMutability": "view",
      "type": "function"
    },
    {
      "inputs": [],
      "name": "whbarToken",
      "outputs": [
        {
          "internalType": "contract IERC20",
          "name": "",
          "type": "address"
        }
      ],
      "stateMutability": "view",
      "type": "function"
    },
    {
      "stateMutability": "payable",
      "type": "receive"
    }
  ],
  "bytecode": "0x60c06040523480156200001157600080fd5b50604051620017ab380380620017ab833981016040819052620000349162000104565b6200003f336200009b565b6001600160a01b0394851660a0529284166080526000805460ff909316600160a01b0260ff60a01b1990931692909217909155600180549184166001600160a01b03199283161790556002805492909316911617905562000189565b600080546001600160a01b038381166001600160a01b0319831681178455604051919092169283917f8be0079c531659141344cd1fd0a4f28419497f9722a3daafe3b4186f6b6457e09190a35050565b6001600160a01b03811681146200010157600080fd5b50565b600080600080600060a086880312156200011d57600080fd5b85516200012a81620000eb565b60208701519095506200013d81620000eb565b604087015190945060ff811681146200015557600080fd5b60608701519093506200016881620000eb565b60808701519092506200017b81620000eb565b809150509295509295909350565b60805160a0516115af620001fc600039600081816101b6015261036f01526000818161020a0152818161040f015281816104b60152818161050b01528181610595015281816105ea0152818161071d015281816107c401528181610819015281816108a301526108f801526115af6000f3fe6080604052600436106100a95760003560e01c8063dc3ef68511610063578063f25f4b561161004b578063f25f4b56146101a4578063f2fde38b146101d8578063f887ea40146101f857005b8063dc3ef68514610151578063e5d128551461018457005b80638da5cb5b116100915780638da5cb5b146100da578063a691744214610111578063be7dd9821461013157005b80632f1525ad146100b2578063715018a6146100c557005b366100b057005b005b6100b06100c03660046111b9565b61022c565b3480156100d157600080fd5b506100b06109a1565b3480156100e657600080fd5b506000546001600160a01b03165b6040516001600160a01b0390911681526020015b60405180910390f35b34801561011d57600080fd5b506002546100f4906001600160a01b031681565b34801561013d57600080fd5b506100b061014c36600461126c565b6109b5565b34801561015d57600080fd5b5060005461017290600160a01b900460ff1681565b60405160ff9091168152602001610108565b34801561019057600080fd5b506001546100f4906001600160a01b031681565b3480156101b057600080fd5b506100f47f000000000000000000000000000000000000000000000000000000000000000081565b3480156101e457600080fd5b506100b06101f3366004611296565b6109f8565b34801561020457600080fd5b506100f47f000000000000000000000000000000000000000000000000000000000000000081565b600061026f87878080601f016020809104026020016040519081016040528093929190818152602001838380828437600092019190915250869250610a88915050565b9050600081600081518110610286576102866112b3565b60200260200101519050600082600184516102a191906112df565b815181106102b1576102b16112b3565b60200260200101519050806001600160a01b0316826001600160a01b0316036103215760405162461bcd60e51b815260206004820152601b60248201527f457461537761703a20544f4b454e5f504149525f494e56414c4944000000000060448201526064015b60405180910390fd5b600080546001546103e89160ff600160a01b90910416906001600160a01b038681169116146103505789610352565b345b61035c91906112f2565b610366919061131f565b905061039383827f0000000000000000000000000000000000000000000000000000000000000000610baa565b60015460009082906001600160a01b038681169116146103b357896103b5565b345b6103bf91906112df565b9050606086156106d7576001546001600160a01b039081169086160361049a576040517ffb3bdb410000000000000000000000000000000000000000000000000000000081526001600160a01b037f0000000000000000000000000000000000000000000000000000000000000000169063fb3bdb4190849061044c908d908b9030908f90600401611377565b60006040518083038185885af115801561046a573d6000803e3d6000fd5b50505050506040513d6000823e601f3d908101601f1916820160405261049391908101906113c2565b9050610671565b6001546001600160a01b039081169085160361058f576104db857f000000000000000000000000000000000000000000000000000000000000000084610ca2565b6040517f4a25d94a0000000000000000000000000000000000000000000000000000000081526001600160a01b037f00000000000000000000000000000000000000000000000000000000000000001690634a25d94a90610548908c9086908b9030908f90600401611480565b6000604051808303816000875af1158015610567573d6000803e3d6000fd5b505050506040513d6000823e601f3d908101601f1916820160405261049391908101906113c2565b6105ba857f000000000000000000000000000000000000000000000000000000000000000084610ca2565b6040517f8803dbee0000000000000000000000000000000000000000000000000000000081526001600160a01b037f00000000000000000000000000000000000000000000000000000000000000001690638803dbee90610627908c9086908b9030908f90600401611480565b6000604051808303816000875af1158015610646573d6000803e3d6000fd5b505050506040513d6000823e601f3d908101601f1916820160405261066e91908101906113c2565b90505b6106a284826001845161068491906112df565b81518110610694576106946112b3565b60200260200101518f610baa565b6106d285826000815181106106b9576106b96112b3565b6020026020010151846106cc91906112df565b8f610baa565b610992565b6001546001600160a01b03908116908616036107a8576040517f7ff36ab50000000000000000000000000000000000000000000000000000000081526001600160a01b037f00000000000000000000000000000000000000000000000000000000000000001690637ff36ab590849061075a908d908b9030908f90600401611377565b60006040518083038185885af1158015610778573d6000803e3d6000fd5b50505050506040513d6000823e601f3d908101601f191682016040526107a191908101906113c2565b905061097f565b6001546001600160a01b039081169085160361089d576107e9857f000000000000000000000000000000000000000000000000000000000000000084610ca2565b6040517f18cbafe50000000000000000000000000000000000000000000000000000000081526001600160a01b037f000000000000000000000000000000000000000000000000000000000000000016906318cbafe5906108569085908d908b9030908f90600401611480565b6000604051808303816000875af1158015610875573d6000803e3d6000fd5b505050506040513d6000823e601f3d908101601f191682016040526107a191908101906113c2565b6108c8857f000000000000000000000000000000000000000000000000000000000000000084610ca2565b6040517f38ed17390000000000000000000000000000000000000000000000000000000081526001600160a01b037f000000000000000000000000000000000000000000000000000000000000000016906338ed1739906109359085908d908b9030908f90600401611480565b6000604051808303816000875af1158015610954573d6000803e3d6000fd5b505050506040513d6000823e601f3d908101601f1916820160405261097c91908101906113c2565b90505b61099284826001845161068491906112df565b50505050505050505050505050565b6109a9610dcc565b6109b36000610e26565b565b6109bd610dcc565b6000805460ff909216600160a01b027fffffffffffffffffffffff00ffffffffffffffffffffffffffffffffffffffff909216919091179055565b610a00610dcc565b6001600160a01b038116610a7c5760405162461bcd60e51b815260206004820152602660248201527f4f776e61626c653a206e6577206f776e657220697320746865207a65726f206160448201527f64647265737300000000000000000000000000000000000000000000000000006064820152608401610318565b610a8581610e26565b50565b606060148351610a9891906114bc565b15610ae55760405162461bcd60e51b815260206004820152601360248201527f496e76616c69642064617461206c656e677468000000000000000000000000006044820152606401610318565b600060148451610af5919061131f565b905060008167ffffffffffffffff811115610b1257610b126113ac565b604051908082528060200260200182016040528015610b3b578160200160208202803683370190505b509050831915610b70576014850160005b83811015610b6d576014810282015160206001909201918202840152610b4c565b50505b8315610ba0576014850160005b83811015610b9d5760148102820151818503602002840152600101610b7d565b50505b9150505b92915050565b8115610c9d576001546001600160a01b0390811690841603610c8957604080516000808252602082019092526001600160a01b038316908490604051610bf091906114f4565b60006040518083038185875af1925050503d8060008114610c2d576040519150601f19603f3d011682016040523d82523d6000602084013e610c32565b606091505b5050905080610c835760405162461bcd60e51b815260206004820152601d60248201527f457461537761703a20484241525f5452414e534645525f4641494c45440000006044820152606401610318565b50505050565b610c9d6001600160a01b0384168284610e8e565b505050565b6040517fdd62ed3e0000000000000000000000000000000000000000000000000000000081523060048201526001600160a01b0383811660248301526000919085169063dd62ed3e90604401602060405180830381865afa158015610d0b573d6000803e3d6000fd5b505050506040513d601f19601f82011682018060405250810190610d2f9190611510565b905081811015610c83576040517f095ea7b30000000000000000000000000000000000000000000000000000000081526001600160a01b0384811660048301526024820184905285169063095ea7b3906044016020604051808303816000875af1158015610da1573d6000803e3d6000fd5b505050506040513d601f19601f82011682018060405250810190610dc59190611529565b5050505050565b6000546001600160a01b031633146109b35760405162461bcd60e51b815260206004820181905260248201527f4f776e61626c653a2063616c6c6572206973206e6f7420746865206f776e65726044820152606401610318565b600080546001600160a01b038381167fffffffffffffffffffffffff0000000000000000000000000000000000000000831681178455604051919092169283917f8be0079c531659141344cd1fd0a4f28419497f9722a3daafe3b4186f6b6457e09190a35050565b604080516001600160a01b03848116602483015260448083018590528351808403909101815260649092018352602080830180517bffffffffffffffffffffffffffffffffffffffffffffffffffffffff167fa9059cbb0000000000000000000000000000000000000000000000000000000017905283518085019094528084527f5361666545524332303a206c6f772d6c6576656c2063616c6c206661696c656490840152610c9d92869291600091610f4c918516908490610fdf565b9050805160001480610f6d575080806020019051810190610f6d9190611529565b610c9d5760405162461bcd60e51b815260206004820152602a60248201527f5361666545524332303a204552433230206f7065726174696f6e20646964206e60448201527f6f742073756363656564000000000000000000000000000000000000000000006064820152608401610318565b6060610fee8484600085610ff6565b949350505050565b60608247101561106e5760405162461bcd60e51b815260206004820152602660248201527f416464726573733a20696e73756666696369656e742062616c616e636520666f60448201527f722063616c6c00000000000000000000000000000000000000000000000000006064820152608401610318565b600080866001600160a01b0316858760405161108a91906114f4565b60006040518083038185875af1925050503d80600081146110c7576040519150601f19603f3d011682016040523d82523d6000602084013e6110cc565b606091505b50915091506110dd878383876110e8565b979650505050505050565b60608315611157578251600003611150576001600160a01b0385163b6111505760405162461bcd60e51b815260206004820152601d60248201527f416464726573733a2063616c6c20746f206e6f6e2d636f6e74726163740000006044820152606401610318565b5081610fee565b610fee838381511561116c5781518083602001fd5b8060405162461bcd60e51b81526004016103189190611546565b6001600160a01b0381168114610a8557600080fd5b8015158114610a8557600080fd5b80356111b48161119b565b919050565b600080600080600080600060c0888a0312156111d457600080fd5b87356111df81611186565b9650602088013567ffffffffffffffff808211156111fc57600080fd5b818a0191508a601f83011261121057600080fd5b81358181111561121f57600080fd5b8b602082850101111561123157600080fd5b60208301985080975050505060408801359350606088013592506080880135915061125e60a089016111a9565b905092959891949750929550565b60006020828403121561127e57600080fd5b813560ff8116811461128f57600080fd5b9392505050565b6000602082840312156112a857600080fd5b813561128f81611186565b634e487b7160e01b600052603260045260246000fd5b634e487b7160e01b600052601160045260246000fd5b81810381811115610ba457610ba46112c9565b8082028115828204841417610ba457610ba46112c9565b634e487b7160e01b600052601260045260246000fd5b60008261132e5761132e611309565b500490565b600081518084526020808501945080840160005b8381101561136c5781516001600160a01b031687529582019590820190600101611347565b509495945050505050565b8481526080602082015260006113906080830186611333565b6001600160a01b03949094166040830152506060015292915050565b634e487b7160e01b600052604160045260246000fd5b600060208083850312156113d557600080fd5b825167ffffffffffffffff808211156113ed57600080fd5b818501915085601f83011261140157600080fd5b815181811115611413576114136113ac565b8060051b604051601f19603f83011681018181108582111715611438576114386113ac565b60405291825284820192508381018501918883111561145657600080fd5b938501935b828510156114745784518452938501939285019261145b565b98975050505050505050565b85815284602082015260a06040820152600061149f60a0830186611333565b6001600160a01b0394909416606083015250608001529392505050565b6000826114cb576114cb611309565b500690565b60005b838110156114eb5781810151838201526020016114d3565b50506000910152565b600082516115068184602087016114d0565b9190910192915050565b60006020828403121561152257600080fd5b5051919050565b60006020828403121561153b57600080fd5b815161128f8161119b565b60208152600082518060208401526115658160408501602087016114d0565b601f01601f1916919091016040019291505056fea2646970667358221220d6e02080c0458a24e168482c5c864a45228c8269adcadd9610d8a5b4775ebc2e64736f6c63430008130033",
  "linkReferences": {},
  "deployedLinkReferences": {}
}